:020000041000EA
:1000000000200008530C00100D000000B50C00107B
:1000100000000000000000000000000000000000E0
:10002000000000000000000000000000B10C001003
:100030000000000000000000B10C0010B10C001026
:10004000B10C0010B10C0010B10C0010B10C00107C
:10005000B10C0010B10C0010B10C0010B10C00106C
:10006000B10C0010B10C0010B10C0010B10C00105C
:10007000B10C0010B10C0010B10C0010B10C00104C
:1000800010B5064C2378002B07D1054B002B02D06E
:10009000044800E000BF0123237010BD2C010008BC
:1000A0000000000020150010044B10B5002B03D0F9
:1000B0000349044800E000BF10BDC0460000000036
:1000C0003001000820150010014B18607047C04631
:1000D00048010008034B1B68002B00D07047014B00
:1000E0001860FBE74C01000870B504002348006865
:1000F000002840D0214805682C2060432818FF24A0
:1001000025001D4005601E0A344044601B0C8360BE
:100110001B4B1C683323E35C9D4200D301BE184B8C
:100120001C68BA23E35A6B43256AAC4663440361F7
:1001300043683425645DA34200D301BE104C24689B
:10014000246A80335B01E418446183681D0C00D08D
:1001500001BE1D0C00D001BE1B041D0C2B43A3606F
:10016000C261016200238361049B002B02D0002244
:100170009B5E838170BD01BEBCE7C0464C01000898
:1001800048010008F0B58FB0041E41D06368032B0E
:1001900000D901BEE36A002B3CD0236B002B3BD07F
:1001A00007AA1300210061C961C321C921C302AE9E
:1001B000230014333100A1CBA1C121CB21C10821DF
:1001C000535E0CAD2B80079B9BB217336B80089B53
:1001D0000D930B9B0A980095A26AE16AFFF784FFD2
:1001E000069B0598002200920021FFF77DFF216BFE
:1001F000280000F095F90022AB5E002B06DB1F22E1
:1002000013401E3A9A401300044A13600FB0F0BD29
:1002100001BEBBE701BEC0E701BEC1E700E100E0EF
:1002200070B582B004000023019300282BD023690D
:10023000002B2AD06369002B29D0236A002B28D0F9
:100240006369DD682A0C0BD012041A601B682069F0
:10025000204B1A68BC23D3581B181B68002B1ADBD1
:100260002D042A0C002D0AD063691A601B68636A8A
:10027000002B2AD09847002363620023A36163699F
:100280001B6802B070BD01BED1E701BED2E701BE5E
:10029000D3E701BED4E701A900F056F800280ED13B
:1002A00001980268160CFF231340E2699A4207D9AD
:1002B0009B00226AD358002B02D0984700E000260A
:1002C0003100206900F01AF8CAE7A36A002BD4D0E5
:1002D0009847D2E74801000810B50200064B1B689A
:1002E000002B07D0044B18682C235343C018FFF78A
:1002F00097FF10BD01BEF5E74C010008084B1A68D6
:10030000BC23D3581B181B68002B07DA0B0C00D03A
:1003100001BE0904090C4160002070470148FCE758
:100320004801000801008A000368002B08DAC26057
:100330000B0C00D001BE0904090C8160002070473D
:100340000048FCE701008A0000290BD0074B1A681F
:10035000BC23D3581B181B68002B05DAC3680B603D
:100360000020704701BEF1E70148FAE748010008A4
:1003700001008A0070B50C001D4B1A683323D35C52
:10038000834230D9002930D00B68DB0601D01948F0
:100390002AE03323D35C984200D301BE144B1B6880
:1003A0001D6ABA229B5A58432D18134E3560236894
:1003B000DA080021606801F025F800212800FFF725
:1003C0009DFF306822000021FFF7AEFF002801D01A
:1003D0000A4809E0084B18680021FFF78FFF002842
:1003E00002D0064800E0034870BD0248FCE7C04662
:1003F0004801000803018A005001000801018A0039
:1004000010B50B00002A05D0002A1DD0002B15D1F5
:100410000E4810BD0029F7D10D4A116833228A5CBD
:10042000904200D301BE0A4A11680A6ABA24095BE5
:100430004843121807490A601800EAE706490B60AA
:100440004A60FFF797FFE4E70048E2E703018A000C
:100450004801000850010008D40000080749C022E4
:1004600052008B589B009B088020C00503438B5093
:10047000885880231B0603438B507047000026409A
:1004800030B5194B1B682C229A5C1F2A15D884089A
:100490000722250095432A1E22D103321040C000B6
:1004A000FC3282401B682033A4001B191C68814069
:1004B000614011406140196012E03C229A5E0BB22B
:1004C0009A420ED007230340074A12681268802020
:1004D0000006184380239B019C4661448900885094
:1004E00030BD01BEEEE7C04648010008094B9A68DE
:1004F000094B9A4204D010308000084BC058704716
:10050000002905D01030044A830098589950F6E726
:1005100001BEF7E700ED00E0000000080000001059
:10052000F0B5C64600B582B0041E01914FD04368B5
:10053000032B00D901BE0023E05E002825DA254EFA
:100540000023E25E6168002A24DB9308224DC03359
:100550009B005859804603273A40D200FF2084462A
:10056000070097404046B8430700890160460840AD
:10057000904038435851194B9A68194B9A4220D0F1
:10058000300002B080BCB846F0BD6188FFF778FF4C
:100590000026D5E70F231340083B9B0806339B003A
:1005A0000E48844663445F6803200240D200FC305A
:1005B00005009540AF43890108409040384358609A
:1005C000D9E70023E05E0199FFF790FFD8E7014EDD
:1005D000D6E7C0460100560000E100E000ED00E073
:1005E00000000008044B1A681368882152589B18B1
:1005F0001868000AC0B2704748010008044B1A6826
:100600001368882152589B181868000E7047C0461E
:1006100048010008064B1A684023D35C834200D887
:1006200001BEE0308000034BC3580F2018407047D4
:100630004801000800002640074B1A684023D35C9D
:10064000834200D801BEE0308000044BC3581B0930
:10065000032018407047C0464801000800002640AB
:10066000034B1B6904201840431E9841C0B27047D9
:10067000000027400020704700207047014B186899
:100680007047C04654010008084AA623DB00D25830
:1006900003231340032B06D0044AA623DB00D358C0
:1006A0000120184070470220FCE7C04600002640A9
:1006B00010B5FFF7E9FF022801D0002010BD014B63
:1006C0001868FBE75801000803000C4A11683E2235
:1006D0008A5C824200D801BE1A00D03292000849DA
:1006E000505807221040042800D07047C0339B00A8
:1006F0005B581B300340E1301843F6E7480100081F
:100700000000264010B52A4B1A683E23D35C834272
:1007100000D801BEFFF7D8FF88235B00984231D094
:1007200012D802282BD004D903280BD1FFF7A2FF3F
:100730003CE0002839D0012802D1FFF79FFF35E0C7
:10074000002033E0002031E089235B00984229D06B
:100750001423FF33984206D1164A174BD358002B67
:100760001DDB002022E01223FF33984205D1FFF762
:1007700077FF002810D1002018E0002016E0FFF7D6
:1007800097FF13E00B4A0D4BD358002B01DB0020E1
:100790000CE08020000209E08020000206E08020BA
:1007A000000203E0FFF768FF00E0054810BDC04607
:1007B00048010008000026403C0500000C05000030
:1007C00000127A00024AB023DB00D058C00F7047F5
:1007D0000000264010B5002832D01A49B023DB00B3
:1007E000CB589A03920B02608022520413405A1E87
:1007F0009341C371144BCB58DA04D20C82801B0C8A
:10080000DB05DB0D0381B123DB00CB580F22140085
:100810001C4084721C092240C2721A0AD204D20CF3
:1008200082811B0F032213408373084BCB58190A94
:1008300004320A4082711B0CDB05DB0D038210BD04
:1008400001BECAE700002640840500008C050000B8
:100850000138074B1A683F23D35C834200D801BE9E
:100860008130FF308000034BC058C00F7047C04636
:1008700048010008000026400138114B1A683F2348
:10088000D35C83421AD98130FF3080000D4BC358AE
:100890007F221A400A70180A1F2210404870180C54
:1008A00002408A70802212051A40501E8241CA708E
:1008B0001B0F032213400B71002070470248FCE716
:1008C000480100080000264001004A00F0B587B04A
:1008D0001422002101A800F095FD01A8FFF77AFF7E
:1008E000FFF770FF002807D001AB9B7B022B01D0E4
:1008F000012302E0002300E0002301AA019E948866
:100900002000D279002A1FD00225002B1ED00028FB
:100910001DD00020FFF7F6FE32000023002100F07A
:100920004DFC06000F002A0000232000002100F0EB
:1009300045FC02000B00CC07400820434908801901
:10094000794100F01BFC02E00125DEE7002007B042
:10095000F0BD0000F0B585B004002E4B1B683F22AF
:100960009A5C002A53D0002852D03E229B5C8342DE
:1009700000D801BE274B1A683F23D35CA34201D2A3
:10098000002045E00522002102A800F03BFD02A95D
:100990002000FFF771FF2000FFF75AFF002807D063
:1009A00002AB1B79022B01D0012302E0002300E0FF
:1009B000002302AA1678577838009578002B24D0A7
:1009C000002F25D0002D01D1280021E02000FFF7C5
:1009D00099FE32000023002100F0F0FB009001910D
:1009E0002A0000233800002100F0E8FB02000B0081
:1009F000CC07400820434908009C019D24184D4124
:100A00002000290000F0BAFB02E0002000E00020F6
:100A100005B0F0BD4801000810B504000D4B1A6880
:100A20003E23D35C834200D801BE002C09D0094B81
:100A30001A683F23D35CA34208D22000FFF762FE6E
:100A400010BDFFF743FF0028FAD1F6E72000FFF7BB
:100A500081FFF8E74801000870B50600FFF7ECFDDC
:100A60000500012484403000FFF7D4FDFFF7D4FFD8
:100A700064082018E84070BD10B50020FFF72CFC7A
:100A800010BD704710B50020FFF7E6FF041E00D12F
:100A900010BD144B1860FFF7B1FD411C200000F0A1
:100AA000E1FA0400104B1860FFF79CFD411C200088
:100AB00000F0D8FA04000D4B1860013C0C492000EE
:100AC00000F0D0FA01300B4B1870FA218900200099
:100AD00000F0C8FA0130084B1860C003074B1860DB
:100AE000D6E7C0468400000888000008800000089F
:100AF00040420F0094000008900000088C0000089D
:100B000010B52348FFF7E0FA224CB022D200A358D8
:100B10005B005B08A350E0218900635830208343C9
:100B2000635080235B04A3501B4B1C4AE2500433E8
:100B3000A0229201E2501A4BFF22E250FFF78EFCF6
:100B4000C0225200A35801218B43A350FFF799FF05
:100B5000FFF798FF134B1B68BA20195ACA00521AA4
:100B6000196A8C4662440021D1601A6A185AC3007F
:100B70001B1AD31859600C4A80310320FFF740FC40
:100B80000A48FFF7A7FA0A48FFF7FCFA10BDC0466B
:100B90002C14001000002640840500000100020013
:100BA0008C05000048010008DC0000085C0100081A
:100BB000EC140010034A90235B01D3580320184023
:100BC0007047C0460000204010B500F02AFA084CDB
:100BD000902149016358074A1A40074B1343635059
:100BE000034B5B68DB06FBD500F01FFA10BDC04667
:100BF00000002040FCFF00000100FA0570B5040071
:100C0000830500D001BE00F00CFA0500FFF7D2FF0B
:100C1000032813D00B4B802292009C50902040015F
:100C20001A5809491140094A0A431A50054B5B6892
:100C3000DB06FBD5280000F0F8F970BDFFF7C4FF14
:100C4000E8E7C04600002040FCFF00000300FA0572
:100C50007047FFF7FDFF72B60F4C104DAC4209DA3A
:100C600021686268A368043B02DBC858D050FAE7E9
:100C70000C34F3E70A490B4A0020521A02DD043A09
:100C80008850FCDC084809490860BFF34F8FFFF724
:100C900037FF00F0CDF9FEE72C15001044150010C9
:100CA0002C010008DC0200080000000808ED00E04C
:100CB000FEE7FEE700B504207146084202D0EFF3DC
:100CC000098002E0EFF30880043000F089F9FEE7C4
:100CD00010B5072900D901BE1F2314009C4300D082
:100CE00001BE104B1B689C69001BC0095B690001B9
:100CF000181803290AD80468C9001F238B409C4395
:100D00001F231A408A402243026010BD0439446800
:100D1000C9001F238B409C431F231A408A40224353
:100D20004260F2E748010008072900D901BE012A04
:100D300000D901BE01238B40002A01D143607047D6
:100D40008360FCE7072900D901BE01238B40C36003
:100D50007047000030B50400072900D901BE0F23F9
:100D60001000984303D1012A01D0092A00D101BE05
:100D70008900074B18688123C05C00190468723B26
:100D80001D008D40AC4313408B402343036030BDB6
:100D90004801000830B50300072900D901BE012A27
:100DA00000D901BE074804688220205CC01804688E
:100DB00001231D008D40AC4313408B40234303604F
:100DC00030BDC0464801000830B5082900D901BE31
:100DD000012A00D901BE846901231D008D40AC4366
:100DE00013408B402343836130BD000030B50300C6
:100DF000082900D901BE032A00D901BE49000748CD
:100E000004688020205CC018046803231D008D4006
:100E1000AC4313408B402343036030BD48010008BE
:100E2000F8B5CE46474680B507000E0014000028EE
:100E300000D1B1E0002A00D1B0E0072900D901BEFD
:100E40002368012B00D901BE63680F22190091436A
:100E500003D1012B01D0092B00D101BE237A1F221F
:100E6000934300D001BEE368032B00D901BE236980
:100E7000012B00D901BE6369012B00D901BE236A91
:100E8000012B00D901BE636A012B00D901BEA36A00
:100E9000012B00D901BEE36A032B00D901BE236BED
:100EA000072B00D901BEE369032B00D901BEA3695A
:100EB000012B00D901BE01252B00B340700010307A
:100EC00003229146110081400B439C46344B9846C7
:100ED000832341460968C95CC9190B68624693437C
:100EE0009C46A3692B40B340624613439C46E2698B
:100EF0004B4613401A008240634613430B60227A2C
:100F000031003800FFF7E4FE626831003800FFF777
:100F100021FFE26831003800FFF768FF22693100E5
:100F20003800FFF751FF626931003800FFF732FFE8
:100F300043461A688423D25CBA1810687B339846FB
:100F40009843236A1D40636A5B009C460223614606
:100F50000B401D43A36A9B009C46042361460B4043
:100F60002B43E16AC90018250D402B43216B4D012D
:100F7000414629400B43B100FE25AD0029408B407E
:100F800003431360226831003800FFF7CDFE0020D4
:100F9000C0BCB946B046F8BD0248F9E70148F7E7DA
:100FA0004801000801005A0010B5040006E0084B93
:100FB000186800F02DF8074B9C46644480231B0200
:100FC0009C42F4D8044B1868604300F021F810BD2F
:100FD0008C0000080080FFFF90000008FEE7000082
:100FE00010B50A4B0268DA6142681A6282685A6276
:100FF000C2689A620269DA6242691A6382695A6354
:10100000C2699A63FFF7EAFF10BDC046F00000080E
:101010000230800803D001300238FCD1C046C046FF
:101020007047EFF3108072B6704780F310887047F6
:1010300010B562B6084A07210848FFF7F1FE0848D4
:10104000FFF7DCFD07210548FFF77CFEFA20800052
:10105000FFF7AAFFF6E7C046980000088006314077
:1010600000200010002243088B4274D303098B42F6
:101070005FD3030A8B4244D3030B8B4228D3030C68
:101080008B420DD3FF22090212BA030C8B4202D30A
:101090001212090265D0030B8B4219D300E0090A32
:1010A000C30B8B4201D3CB03C01A5241830B8B423B
:1010B00001D38B03C01A5241430B8B4201D34B0324
:1010C000C01A5241030B8B4201D30B03C01A524189
:1010D000C30A8B4201D3CB02C01A5241830A8B420E
:1010E00001D38B02C01A5241430A8B4201D34B02F7
:1010F000C01A5241030A8B4201D30B02C01A52415B
:10110000CDD2C3098B4201D3CB01C01A524183090E
:101110008B4201D38B01C01A524143098B4201D348
:101120004B01C01A524103098B4201D30B01C01A73
:101130005241C3088B4201D3CB00C01A52418308ED
:101140008B4201D38B00C01A524143088B4201D31A
:101150004B00C01A5241411A00D20146524110467A
:101160007047FFE701B5002000F006F802BDC04659
:101170000029F7D076E770477047C046002B11D1A1
:10118000002A0FD1002900D1002802D00021C94334
:10119000080007B4024802A14018029003BDC046EF
:1011A000D9FFFFFF03B4684601B5029800F034F898
:1011B000019B9E4602B00CBC7047C046F0B5CE46BF
:1011C000474680B5070099463B0C9C4613041B0C10
:1011D0001D000E0061460004140C000C45434B43F7
:1011E00060436143C0182C0C20188C46834203D9FD
:1011F00080235B029846C444494679437243030CFA
:1012000063442D042D0CC918000440198918C0BC72
:10121000B946B046F0BDC046F0B557464E464546C5
:10122000DE46E0B504000D009246994683B08B423D
:1012300030D82DD04946504600F0BAF829000600B3
:10124000200000F0B5F8331A9846203B9B4633D473
:101250005A465346934042461F00534693401E0051
:10126000AF423AD8AF4200D178E05B46A41BBD4103
:10127000002B00DA75E00022002300920193012385
:101280005A4693400193012342469340009328E03D
:101290008242CFD900220023009201930C9B002BA5
:1012A00001D01C605D600098019903B0F0BCBB46A2
:1012B000B246A946A046F0BD424620239B1A52469C
:1012C000DA40414613004A468A40170042461F430F
:1012D000534693401E00AF42C4D90022002300921F
:1012E00001934346002BD9D0FB0772081A434646A8
:1012F0007B080EE0AB4201D1A2420CD8A41A9D415A
:10130000012024196D410021013E24184D41002E79
:1013100006D0AB42EED9013E24196D41002EF8D122
:10132000009801995B4600196941002B24DB2B00D2
:101330005A464446D3402A00E2401C005B46150052
:10134000002B2ADB26009E40330026004746BE4085
:101350003200801A9941009001919FE7A342BCD8C6
:1013600083E74246202300219B1A0022009101922C
:101370000122DA40019286E7424620239B1A2A0086
:1013800046469A402300F340444613432A00E24075
:101390001C005B461500002BD4DA42462F002023A8
:1013A000260097409B1ADE403B003343CDE7C04602
:1013B00010B5002903D100F007F8203002E0080042
:1013C00000F002F810BDC0461C2101231B04984206
:1013D00001D3000C10391B0A984201D3000A0839C6
:1013E0001B09984201D30009043902A2105C40187D
:1013F0007047C04604030202010101010000000021
:101400000000000003008218934200D17047197059
:101410000133F9E7F8B5C046F8BC08BC9E467047F2
:10142000F8B5C046F8BC08BC9E4670470000204096
:1014300000002440000000400000000000002340A5
:10144000000030400000314000009F40000022407A
:101450000000104000009D4020202020201010108F
:10146000101D1D8017007500FF03060206003604DC
:10147000102000007FC000000004000000000000F9
:101480000019324B647D0000000000804000080B12
:10149000100000000000FF012002001F0080000477
:1014A000FF081018001000140018001C4044484C9D
:1014B00050000000081000000800000004000000B8
:1014C00004100000001200000421000000210000B0
:1014D0000016000040114002C41300138013A01333
:1014E00040138813A81320001C0000000300000014
:1014F0000100000001000000000000000503600082
:1015000004000000010000000000000001000000D5
:101510000604600008000000BC020008790A001000
:1015200000000000F4FCFF7F01000000000000103C
:1015300000000008800000004C150010800000082A
:10154000540000002C010008B001000000093D001B
:1015500000127A0000093D000000D007A00F000033
:1015600004000000010000000A000000000000006C
:101570000100000001000000000000000000000069
:10158000000000000000000000000000000000005B
:101590000000000000000000A90000108100001001
:1015A000000000000000000000000000000000003B
:0815B000000000000000000033
:1020000000F80F08252300100D0000009923001090
:10201000992300109923001099230010000000005C
:1020200000000000000000000000000095230010E8
:102030009523001000000000952300109523001048
:102040009523001095230010952300109523001070
:102050009523001095230010952300109523001060
:102060009523001095230010952300109523001050
:102070009523001095230010952300109523001040
:1022E00010B5054C237833B9044B13B10448AFF350
:1022F00000800123237010BD9C2300080000000013
:102300007434001008B5034B1BB103490348AFF305
:10231000008008BD00000000A023000874340010F5
:1023200070477047FFF7FCFF72B6144C144DAC4277
:1023300009DA21686268A368043BA2BFC858D0507C
:10234000FAE70C34F3E70F490F4A00209142BCBF73
:1023500041F8040BFAE70D480D490860BFF34F8FB1
:1023600000F082F800F074F8FFF7DBFF00F0C8FF20
:1023700000F0DAFD00F0B0FFFEE70000803400104E
:10238000983400109C230008002400080020000856
:1023900008ED00E0FEE7FEE700B5042071460842C4
:1023A00002D0EFF3098002E0EFF30880043000F080
:1023B000E5F8FEE7000000000230800803D001309D
:1023C0000238FCD100BF00BF7047EFF3108072B637
:1023D000704780F3108870477047000010B50020E8
:1023E00000F0D0FB00B910BD0446114B186000F09E
:1023F000D7F90130B4FBF0F00E4B186000F0DAF9B9
:102400000130B4FBF0F40C4B1C60013C0B4BA3FB04
:1024100004239B0C01330A4A13700A4BA3FB0423C9
:102420009B090133084A1360DB03084A1360DAE7AB
:10243000E4220008E8220008E022000883DE1B43B3
:10244000F4220008D34D6210F0220008EC220008AC
:1024500008B5044800F0A6FBFFF7BEFFFFF7BEFF7C
:1024600008BD00BF60330010EFF3108172B6074A59
:10247000D2F8883043F47003C2F88830BFF34F8F2E
:10248000BFF36F8F81F31088704700BF00ED00E04D
:1024900010B5072900D901BE32F01F0300D001BEDC
:1024A000164B1B689C69001BC0095B694FEA001C46
:1024B00003EB0010032910D853F80C00C9004FF0AB
:1024C0001F0E0EFA01FE20EA0E0002F01F0202FAB1
:1024D00001F1014343F80C1010BD04394368C900F1
:1024E0004FF01F0C0CFA01FC23EA0C0302F01F0250
:1024F00002FA01F119434160EEE700BFC023000872
:1025000000B5072900D901BE32F00F0303D1012A1B
:1025100001D0092A00D101BE89000A4B1B6893F83B
:1025200081E05EF800304FF00F0C0CFA01FC23EA5A
:102530000C0302F00F028A401A434EF800205DF8A7
:1025400004FB00BFC023000810B5044605E0084B9B
:102550001868FFF731FFA4F50044B4F5004FF6D832
:10256000044B186804FB00F0FFF726FF10BD00BF06
:10257000EC220008F0220008FEE7000008B502681F
:10258000254BDA6142681A6282685A62C2689A62AE
:102590000269DA6242691A6382695A63C2699A639C
:1025A0001E4A916AD963D16A1964516A5964516BA0
:1025B0009964926BDA64F1EE103A13F0900F27D021
:1025C000026A154B1A65426A5A65826A9A65C26A3E
:1025D000DA65026B1A66426B5A66826B9A66C26B48
:1025E000DA66026C1A67426C5A67826C9A67C26C30
:1025F000DA67026DC3F88020426DC3F88420826DD3
:10260000C3F88820C26DC3F88C20026EC3F89020F6
:10261000FFF7B2FF08BD00BF0823000800ED00E08F
:10262000A0B9072931D8FF2A31D81C4B1868836814
:10263000B0F878C09C445CF8210020F47F4012027E
:1026400092B202434CF8212000207047012801D0AB
:10265000134870470F291CD8B2F5803F1BD20F4B8F
:1026600018688368B0F87AC09C445CF8210020F4B4
:102670007F0020F47F40130223F07F4323F0FF0309
:1026800003434CF821300020704705487047044848
:102690007047034870470248704700BFC0230008D6
:1026A00001004A001B4B1B6893F842C084452BD99C
:1026B00003292BD809B9072A0ED9012905D00229E7
:1026C00006D0032907D0144870470F2A04D9F6E72B
:1026D000032A01D9F5E7DAB900B593F875E001FAF4
:1026E0000EF14FF0030C0CFA0EFC01EA0C0193F80A
:1026F00074C00CEA02029B68114300F5407043F875
:10270000201000205DF804FB034870470248704722
:1027100001487047C023000801004A00032836D84A
:1027200008B907290ED9012805D0022806D00328A8
:1027300007D0194870470F2904D9F6E7032901D9B2
:10274000F5E731BB10B5154B1A6892F877304FF0AA
:10275000030E0EFA03F392F874C092F876400CFA66
:1027600004F4234392F87540A0400EFA04FE00EAF8
:102770000E0018430CEA01019368084340F0004042
:10278000C3F800049368D3F80034002010BD024859
:1027900070470148704700BF01004A00C02300088D
:1027A000034B1B681A68D3F88830D058000E704766
:1027B000C0230008044B1B681A68D3F88C30D0582B
:1027C000C0F30720704700BFC0230008064B1B68FA
:1027D00093F84030834200D801BEE030034B53F8F9
:1027E000200000F00F007047C023000800002640C2
:1027F000064B1B6893F84030834200D801BEE0309E
:10280000034B53F82000C0F301107047C0230008A9
:1028100000002640024B1869C0F38000704700BFDB
:10282000000027400020704700207047014B1868C7
:10283000704700BFB8230008074BD3F8303503F0CA
:102840000303032B05D0044BD3F8300500F001003F
:1028500070470220704700BF0000264008B5FFF710
:10286000EBFF022801D0002008BD014B1868FBE7F0
:10287000BC23000802460C4B1B6893F83E30834291
:1028800000D801BE02F1D003084951F8230000F03E
:102890000700042800D07047C03251F8220000F031
:1028A0001F0040F48070F6E7C023000800002640B7
:1028B00008B5284B1B6893F83E30834200D801BE10
:1028C000FFF7D8FF03280DD9B0F58A7F40D2B0F5C5
:1028D000887F0FD3A0F58870032835D8DFE800F093
:1028E000151F3127032803D8DFE800F03006090C54
:1028F00000202CE000202AE0FFF798FF27E0FFF7F8
:10290000ADFF24E0FFF78EFF21E0134BD3F80C3529
:10291000002B01DB00201AE04FF4004017E0FFF726
:1029200079FF08B9002012E04FF400400FE00A4B95
:10293000D3F83C35002B01DB002008E04FF40040C9
:1029400005E0FFF771FF02E0002000E0034808BD4A
:102950000020FCE7C02300080000264000127A0097
:10296000024BD3F88005C00F704700BF000026401F
:10297000034638B31449D1F88025C2F3110018601A
:10298000C2F30062DA71D1F88425C2F30C0098809A
:10299000C2F308421A81D1F8882502F00F0098721C
:1029A000C2F30310D872C2F30C209881C2F30172F3
:1029B0009A73D1F88C25C2F302219971C2F30842AF
:1029C0001A82704701BED5E7000026400138074B48
:1029D0001B6893F83F30834200D801BE00F5C070F9
:1029E000034B53F82000C00F704700BFC0230008FE
:1029F0000000264001380F4B1B6893F83F3083429C
:102A000015D900F5C0700C4B53F8203003F07F024D
:102A10000A70C3F304224A70C3F304428A70C3F3FA
:102A2000C062CA70C3F301730B7100207047034882
:102A3000704700BFC02300080000264001004A0084
:102A400070B586B00023019302930393049305931A
:102A500001A8FFF78DFFFFF783FF38B19DF8123013
:102A6000022B01D0012102E0002100E00021019DA4
:102A7000BDF8084020469DF80B3083B1022681B195
:102A800084B10020FFF714FFA0FB0501A4FB06237F
:102A90005408001941F1000100F09CFA02E00126FF
:102AA000EDE7002006B070BD254B1B6893F83F2072
:102AB000002A43D0F0B583B0044658B193F83E30B5
:102AC000834200D801BE1E4B1B6893F83F30A342DF
:102AD00002D2002003B0F0BD002300938DF8043033
:102AE00069462046FFF786FF2046FFF76FFF38B1A3
:102AF0009DF80430022B01D0012302E0002300E006
:102B000000239DF800709DF8015028469DF8026052
:102B100093B1002DDED00EB93046DBE72046FFF73B
:102B2000C7FEA0FB0771A5FB06235008381841F12A
:102B3000000100F04FFACDE70020CBE700207047FE
:102B4000C023000810B504460D4B1B6893F83E30B7
:102B5000834200D801BE4CB1094B1B6893F83F304B
:102B6000A34208D22046FFF7A3FE10BDFFF768FF7F
:102B70000028FAD1F6E72046FFF796FFF8E700BFF6
:102B8000C023000870B50646FFF732FE0446012553
:102B900085403046FFF71AFEFFF7D4FF00EB5500E3
:102BA000E04070BD014B1860704700BFC0230008B3
:102BB000036813F4006F0AD08022D0F80832C3F300
:102BC0000803934205D0C0F840120120704740220C
:102BD000F3E70020704700B58E46036813F4006FDA
:102BE00003D080224FF0000C0BE04022FAE7D0F82F
:102BF0000832C3F308039A42F9D0C0F840120CF12E
:102C0000010C1EF80C100029F1D15DF804FB000046
:102C1000002800F07F810346002900F07D8110B478
:102C20000878022800D901BE487B0238C0B20628C5
:102C300000D901BE887B20B1022802D0032800D031
:102C400001BE91F82100012800D901BE91F82800A9
:102C5000012800D901BE0878012806D9887F48B12B
:102C600048680138062805D903E04868083808286C
:102C700000D901BE88680538042800D901BE48691A
:102C8000FF2800D901BE8869FF2800D901BE887CD1
:102C900030B1087818B98868092800F0828001BE30
:102CA000486B20F4366020F00D0000B101BEC86B07
:102CB00020F4EE6020F0030000B101BE0878022885
:102CC00074D0486800F1FF3C087F002874D04FF4AE
:102CD00080308C68082C71D84FF4006420430CF0CD
:102CE0000F0C40EA0C0040F0007018600C6B186884
:102CF00010F4006F64D08020844200D301BE8C6B3E
:102D0000186810F4006F5DD08020844200D301BEAB
:102D10004C6A186810F4006F56D08020844200D3AB
:102D200001BE0878000600F040701864487F002853
:102D30004CD040208C7C002C4AD04FF4806420433F
:102D40000C7C002C46D04FF4807420434C7C002C2B
:102D500042D04FF400742043CC6A04F1FF3C4FEAA8
:102D60000C4C0CF4702C40EA0C0091F80DC00CF1E6
:102D7000FF3C0CF0070C40EA0C0091F80EC04FEA43
:102D80000C1C0CF0300C40EA0C009864087B28B353
:102D90004FF48070CC7B1CBB0C78022C48D00024F4
:102DA00020E0887B00283FF47BAF78E7887F00280D
:102DB00087D14FF0000C87E700208AE700248DE7D9
:102DC000402099E74020A0E74020A7E70020B1E796
:102DD0000024B4E70024B8E70024BCE70020D9E7CA
:102DE0004FF4007420438C6804F1FF3C0CF00F0C8E
:102DF00040EA0C00C3F8000391F814C0886900048D
:102E000000F47F004CEA0000C3F81003CC6AD3F84A
:102E1000000300F00F000330844201D3102C00D9CE
:102E200001BEC87F38B10878012863D0002403E0D0
:102E30004FF40074D6E70024487B013800F0070007
:102E4000204391F80EC04FEA0C1C0CF0300C40EA05
:102E50000C005864087B00284FD04FF480748868B9
:102E6000013800F00F0020430C78012C47D00024DB
:102E70002043C3F8000291F83000C3F8040391F82E
:102E8000200000283ED04FF0007091F82140012C26
:102E90003AD00024204391F82840012C37D0002458
:102EA000204391F824402043186591F83800C3F876
:102EB0000402486B20F4926020F002000005000D2F
:102EC000C3F8C80FC86B20F08C004005400DC3F854
:102ED000880F1AB30020506010609060D0601062BC
:102EE000D06250638B7F82F830300D4B93635DF876
:102EF000044B70474FF480749EE70024AFE74FF413
:102F00008034B5E70020C0E74FF08074C2E74FF48B
:102F10008034C5E703487047024870470020E6E761
:102F2000EFCDAB000160AA0070B5002201210520A1
:102F3000FFF7B8FB232200210120FFF771FB0021DE
:102F40000120FFF7EBFB1D4C122200212046FFF76A
:102F50009FFA122201212046FFF79AFA0822002147
:102F60002046FFF7CDFA062201212046FFF7C8FAD6
:102F7000134C144A14492046FFF74AFE236843F0D5
:102F80000043236062B6002511E00D4C2046FFF798
:102F900022FE6E1C29462046FFF70AFE0B492046FA
:102FA000FFF719FE4FF47A70FFF7CEFA3546084B5B
:102FB00019680029E9D101BEE7E700BF800231406E
:102FC00000006540C4230008343400102034001091
:102FD000F822000853B94AB9002908BF00281CBFCD
:102FE0004FF0FF314FF0FF3000F074B9ADF1080C35
:102FF0006DE904CE00F006F8DDF804E0DDE9022317
:1030000004B070472DE9F047089E0D4604468846F7
:10301000002B4DD18A42944668D9B2FA82F252B15D
:1030200001FA02F3C2F1200120FA01F10CFA02FCCC
:1030300041EA030894404FEA1C45210CB8FBF5FE19
:103040001FFA8CF705FB1E8341EA03430EFB07F1D1
:1030500099420BD91CEB03030EF1FF3080F01E8167
:10306000994240F21B81AEF1020E63445B1AA4B296
:10307000B3FBF5F005FB103344EA034400FB07F70C
:10308000A7420AD91CEB040400F1FF3380F0088149
:10309000A74240F2058164440238E41B40EA0E4036
:1030A00000211EB1D4400023C6E90043BDE8F087EB
:1030B0008B4208D9002E00F0EE800021C6E9000501
:1030C0000846BDE8F087B3FA83F100294AD1AB4244
:1030D00002D3824200F2F980841A65EB03030120D7
:1030E0009846002EE2D0C6E90048DFE702B9FFDECD
:1030F000B2FA82F2002A40F09180A1EB0C054FEA6F
:103100001C471FFA8CFE0121B5FBF7F307FB135098
:10311000250C45EA00450EFB03F0A84208D91CEB3C
:10312000050503F1FF3802D2A84200F2CB804346E6
:103130002D1AA4B2B5FBF7F007FB105544EA05447D
:103140000EFB00FEA64508D91CEB040400F1FF3578
:1031500002D2A64500F2BB802846A4EB0E0440EA4A
:1031600003409EE7C1F120078B4022FA07FC4CEA9E
:10317000030C20FA07F405FA01F31C43FD404FEA63
:103180001C4900FA01F3B5FBF9F8200C1FFA8CFE7C
:1031900009FB185540EA054508FB0EF0A84202FA63
:1031A00001F20BD91CEB050508F1FF3A80F088808D
:1031B000A84240F28580A8F1020865442D1AA4B205
:1031C000B5FBF9F009FB105544EA054500FB0EFE7E
:1031D000AE4508D91CEB050500F1FF346CD2AE45B5
:1031E0006AD90238654440EA0840A0FB0294A5EB86
:1031F0000E05A542C846A64656D353D05EB1B3EBE2
:10320000080265EB0E0505FA07F722FA01F3CD4037
:103210001F43C6E900750021BDE8F087C2F1200315
:1032200020FA03F10CFA02FC25FA03F395400D4352
:103230004FEA1C471FFA8CFEB3FBF7F107FB113076
:103240002B0C43EA004301FB0EF0984204FA02F40F
:1032500008D91CEB030301F1FF382FD298422DD976
:10326000023963441B1AADB2B3FBF7F007FB10330E
:1032700045EA034500FB0EF3AB4208D91CEB0505FC
:1032800000F1FF3816D2AB4214D902386544ED1A6A
:1032900040EA014138E73146304607E78646E5E631
:1032A0001846FAE64B45A9D2B9EB020864EB0C0EBE
:1032B0000138A3E74046EAE7204694E74146D1E7D4
:1032C000D0467BE7023B654432E7084609E76444A1
:1032D000023842E7704700BF38B5074D074C641B02
:1032E000A4101CB9BDE8384000F034B8013C55F8D2
:1032F00024309847F5E700BF0023000804230008A6
:1033000070B50D4D0D4C641BA4100026A64209D1CA
:103310000B4D0C4C00F018F8641BA4100026A642BC
:1033200005D170BD55F8043B98470136EEE755F8D6
:10333000043B98470136F2E7FC220008FC22000813
:10334000FC22000800230008F8B500BFF8BC08BC48
:103350009E467047F8B500BFF8BC08BC9E46704753
:103360000000204000002440000000400000000059
:1033700000002340000030400000314000009F402A
:10338000000022400000104000009D40202020202E
:1033900020101010101D1D8017007500FF0306027D
:1033A00006003604102000007FC00000000400006A
:1033B000000000000019324B647D00000000008016
:1033C0004000080B100000000000FF012002001F59
:1033D00000800004FF081018001000140018001CE2
:1033E0004044484C50000000081000000800000055
:1033F000040000000410000000120000042100007E
:10340000002100000016000040114002C413001308
:103410008013A01340138813A81320001C00000081
:103420000A00000048656C6C6F576F726C64203A3C
:1034300020000000000000000C0000000800000058
:10344000000200000000000000000000000000007A
:10345000000000000000000000000000000000006C
:103460000B00000000000000000000000000000051
:08347000000000000000000054
:083478008CFBFF7F0100000046
:103480000020001000200008E0020000A03400101E
:08349000E02200082400000006
:083498009C2300086400000001
:1034A00000127A0000127A0000093D000000A00F0F
:1034B000401F000008000000243400100523001005
:0434C000E1220010F5
:04000005100023259F
:00000001FF
